:020000040800F2
:10000000E0500020E902000863140008B112000863
:10001000611400081F0600080D170008000000000A
:10002000000000000000000000000000290200089D
:100030002106000800000000850200086D14000879
:100040000303000803030008030300080303000878
:100050000303000803030008030300080303000868
:100060000303000803030008030300080303000858
:100070000303000803030008030300080303000848
:100080000303000803030008030300080303000838
:100090000303000803030008030300080303000828
:1000A0000303000803030008030300080303000818
:1000B0000303000803030008030300080303000808
:1000C00003030008030300080303000803030008F8
:1000D00003030008030300080303000803030008E8
:1000E00003030008030300080303000803030008D8
:1000F000030300082D15000803030008030300088C
:1001000003030008030300080303000803030008B7
:1001100003030008030300080303000803030008A7
:100120000303000803030008030300080303000897
:100130000303000803030008030300080303000887
:100140000303000803030008030300080303000877
:100150000303000803030008030300080303000867
:100160000303000803030008030300080303000857
:100170000303000803030008030300080000000055
:10018000030300080303000800F002F800F03CF845
:100190000AA090E8000C82448344AAF10107DA45E2
:1001A00001D100F031F8AFF2090EBAE80F0013F0F8
:1001B000010F18BFFB1A43F001031847A02D0000E0
:1001C000C02D0000103A24BF78C878C1FAD8520771
:1001D00024BF30C830C144BF04680C6070470000C1
:1001E0000023002400250026103A28BF78C1FBD840
:1001F000520728BF30C148BF0B6070471FB502F0DF
:1002000083FE1FBD10B510BD00F0D0F91146FFF7F9
:10021000F5FF01F08CFA00F0EEF903B4FFF7F2FFFE
:1002200003BC00F0F5F900002C4B19680868B0E831
:10023000F04F80F30988BFF36F8F4FF0000080F319
:10024000118870470000000008480068006880F3CB
:1002500008884FF0000080F3148862B661B6BFF3DF
:100260004F8FBFF36F8F00DF00BF00BF08ED00E0CE
:10027000DFF80C00016841F470010160704700BFB5
:1002800088ED00E0EFF30980BFF36F8F134B1A681E
:100290001EF0100F08BF20ED108A20E9F04F10600B
:1002A00009B44FF0500080F31188BFF34F8FBFF3B4
:1002B0006F8F02F0FDF84FF0000080F3118809BC49
:1002C00019680868B0E8F04F1EF0100F08BFB0ECD6
:1002D000108A80F30988BFF36F8F704714000020E5
:1002E000EFF3058070470000094880470948004740
:1002F000FEE7FEE7FEE7FEE7FEE7FEE7FEE7FEE7D6
:10030000FEE7FEE704480549054A064B7047000032
:100310001D15000889010008E04A0020E050002077
:10032000E04C0020E04C002053EA020C00F0698011
:100330002DE9F04B4FF00006002B1FBFB3FA83F5F9
:1003400003FA05F424FA05F65E4012BF1643B2FA2A
:1003500082F502FA05F4C5F120051EBF22FA05FC5C
:1003600044EA0C04203556EA044C4FEA144418BF02
:10037000641C4FF000084FF00009904271EB030C31
:1003800039D3002919BFB1FA81F701FA07F6B0FA9B
:1003900080F700FA07F6C7F120071EBF20FA07FC16
:1003A00046EA0C062037B6FBF4FCA7EB0507103F26
:1003B00007F01F0BCBF120060CFA0BFB2CFA06F60C
:1003C00044BFB3460026202FA4BF5E464FF0000B6B
:1003D0005BEA060C08BF4FF0010B19EB0B09ABFBF6
:1003E000027C48EB0608C01B06FB02CC0BFB03CCCF
:1003F00071EB0C01C1E70B46024641464846BDE899
:10040000F08B13B54FF000004FF00001AFF3008008
:10041000BDE81C407047032A40F2308010F0030C06
:1004200000F0158011F8013BBCF1020F624498BF47
:1004300011F801CB00F8013B38BF11F8013BA2F1E4
:10044000040298BF00F801CB38BF00F8013B11F05F
:10045000030300F05780083AC0F0088051F8043BCD
:10046000083A51F804CBA0E80810F5E7121D5CBF6C
:1004700051F8043B40F8043BAFF30080D20724BF9F
:1004800011F8013B11F801CB48BF11F8012B24BF33
:1004900000F8013B00F801CB48BF00F8012B704782
:1004A00002F0FF0343EA032242EA024200F05EB890
:1004B0004FF0000200B5134694469646203922BFFD
:1004C000A0E80C50A0E80C50B1F12001BFF4F7AF48
:1004D000090728BFA0E80C5048BF0CC05DF804EB2A
:1004E000890028BF40F8042B08BF704748BF20F898
:1004F000022B11F0804F18BF00F8012B7047704796
:100500007047704710B5203AC0F00B80B1E8185022
:10051000203AA0E81850B1E81850A0E81850BFF4ED
:10052000F5AF5FEA027C24BFB1E81850A0E818508C
:1005300044BF18C918C0BDE810405FEA827C24BFE0
:1005400051F8043B40F8043B08BF7047D20728BF6E
:1005500031F8023B48BF11F8012B28BF20F8023BBD
:1005600048BF00F8012B70474FF000020429C0F08B
:10057000128010F0030C3FF49DAFCCF1040CBCF1E1
:10058000020F18BF00F8012BA8BF20F8022BA1EB27
:100590000C01FFF78FBF5FEAC17C24BF00F8012B7D
:1005A00000F8012B48BF00F8012B7047754600F09A
:1005B0002BF8AE4605006946534620F007008546F5
:1005C00018B020B5FFF79EFEBDE820404FF00006B2
:1005D0004FF000074FF000084FF0000B21F007012B
:1005E000AC46ACE8C009ACE8C009ACE8C009ACE86E
:1005F000C0098D46704710B50446AFF30080204611
:10060000BDE81040FFF709BE004870477C4A002053
:1006100001491820ABBEFEE7260002007047FEE746
:10062000704772B6FEE700002DE9F84FDFF89C91A5
:100630000022A9F1040B03274FF00F0C09F1040A63
:10064000ABF1040E01250B6895402B40AB426ED1F7
:100650000C7904F00304012C01D0022C15D186681A
:10066000540007FA04F826EA0806D1F80C8008FAC4
:1006700004F848EA0608C0F808804468AC430D79DD
:10068000C5F300159540254345600C79E443A40764
:1006900008D0C568540007FA04F6B5438E68A64032
:1006A0002E43C6600C7904F00304022C11D1D40847
:1006B00000EB8406356A5407E40E0CFA04F825EAC8
:1006C0000805D1F8108008FA04F848EA0508C6F8C9
:1006D00020800568540007FA04F6B5430E7906F049
:1006E0000306A6402E4306604C6814F4403F66D0D3
:1006F000374C256845F480452560246822F00305C1
:1007000004F480440094334C05EB0408D8F80858EE
:100710009407260F0CFA06F4A5432F4CA04201D1F2
:10072000002424E02D4CA04202D101241FE046E029
:100730002B4CA04201D1022419E02A4CA04201D145
:10074000032414E0284CA04201D104240FE0274CDC
:10075000A04201D105240AE0254CA04201D1062483
:1007600005E0244CA04201D1072400E00824B44055
:100770002C43C8F80848D9F800404D464E689C43C1
:10078000F60200D51C432C60DAF8004055464E684E
:100790009C43B60200D51C432C60DBF800405D464C
:1007A0004E689C43B60300D51C432C60DEF8004025
:1007B00075464E689C43F60300D51C432C60521CC2
:1007C000102AFFF43FAFBDE8F88F0000083C01405D
:1007D0004438024000300140000002400004024062
:1007E00000080240000C02400010024000140240C9
:1007F00000180240001C0240014880687047000059
:10080000040000200248816802781144816070472A
:10081000040000200B4810B5016841F4007101602C
:10082000016841F480610160016841F480710160F8
:10083000032000F09FF80F2000F006F800F050F8B9
:10084000002010BD003C024030B505461F4887B06F
:100850000024016841F480710160006806A900F479
:1008600080700590684600F031F90398A8B100F057
:100870004DF940001649174AB0FBF1F11648491EE0
:10088000026040F2E732C0E90324C0E90114846148
:1008900000F03AFB040003D015E000F037F9E9E777
:1008A0000D4800F05FFB04000DD12D2000F034F85E
:1008B000102D07D2002229462D2000F03BF80748D2
:1008C000056000E0012407B0204630BD40380240FA
:1008D00040420F000020004060010020080000207E
:1008E0000C4882B0016841F480410160006800F466
:1008F000804000900748001F016841F0805101606E
:100900000068002200F0805000900F21901E02B07D
:1009100000F010B844380240002809DB00F01F0244
:10092000012191404009800000F1E020C0F8001151
:1009300070470000F0B40E4B1B68C3F30223C3F1F1
:100940000704042C00D904241D1D072D01D2002307
:1009500000E0DB1E012606FA04F56D1E0D409D40E9
:100960009E40761E164045EA0601F0BC00F0CFBE60
:100970000CED00E0064A00F0070110684FF6FF0397
:10098000184040EA01200349084310607047000006
:100990000CED00E00000FA052DE9F0470D460400DB
:1009A00065D0DFF81491D9F80000EFB200F007002D
:1009B000A84207D289F80070D9F8000000F00700BB
:1009C000A84254D120683D4E810712D5400703D577
:1009D000306840F4E05030602078000703D530687C
:1009E00040F4604030603068A16820F0F0000843B7
:1009F00030602078C0072DD0304960680839012860
:100A000012D0022813D0032811D0096889070029C1
:100A10002DDA316821F0030101433160FFF7ECFE6C
:100A2000804641F2883A0EE009688903EFE70968D9
:100A30008901ECE7FFF7E0FEA0EB0801514502D980
:100A40000320BDE8F0873068616800F00C00B0EB6F
:100A5000810FEFD1D9F80010484601F00701A942F3
:100A600007D90770006800F00700A84201D00120F4
:100A7000E7E72078400705D53068E16820F4E050CA
:100A8000084330602078000706D53068216920F4DB
:100A9000604040EAC100306000F058F83168084A10
:100AA000C1F30311515CC84006490860064800685C
:100AB000FFF7CAFE0020C4E7003C024008380240AD
:100AC000382F000810000020080000200F220260CC
:100AD0000C4A136803F003034360136803F0F00348
:100AE0008360136803F4E053C36012684FF4E0536B
:100AF00003EAD20202610448006800F007000860BF
:100B00007047000008380240003C02400448054994
:100B100000680968044AC1F38221515CC8407047EB
:100B20001000002008380240482F000804480549FA
:100B300000680968044AC1F34231515CC8407047FB
:100B40001000002008380240482F0008154810B552
:100B5000006810F00C01144813D0431004290FD082
:100B600008290ED10F4C241F216801F03F02216893
:100B7000490207D52068C0F38810A0FB030106E0F6
:100B8000184610BD2168C1F38811A1FB00010023A4
:100B9000FFF7CAFB2168C1F30141491C4900B0FBC2
:100BA000F1F010BD083802400024F4002DE9F84FA0
:100BB000040075D02078DFF838A3C007AAF1040537
:100BC00048D00AF104000168C1F38101012908D06D
:100BD0000068C0F3810002280AD1DAF80000400260
:100BE00006D52868800335D560680028E1D031E05B
:100BF0006068B0F5803F10D0B0F5A02F286810D005
:100C000020F480302860286820F480202860606804
:100C1000A0B1FFF7F1FD06460CE0286840F48030F3
:100C2000F4E740F480202860F7E7FFF7E5FD801B3C
:100C3000642871D828688003F7D50BE0FFF7DCFD46
:100C4000064604E0FFF7D8FD801B6428F1D8286829
:100C50008003F7D42078DFF89C9280074FF0000BD8
:100C60003DD5A348001D016811F00C0F08D00068A5
:100C7000C0F3810002280AD1DAF80000400206D44D
:100C80002868800715D5E068012809D111E0E068DF
:100C9000B8B10120C9F80000FFF7AEFD064605E037
:100CA00022E1FFF7A9FD801B0228C2D8286880072F
:100CB000F7D52868216920F0F80040EAC1002860D3
:100CC0000DE0C9F800B0FFF797FD064604E0FFF716
:100CD00093FD801B02281FD828688007F7D420784E
:100CE000000722D5824F84486169703771B10121B4
:100CF0000160FFF781FD064604E0FFF77DFD801BE4
:100D0000022809D838688007F7D50EE0C0F800B08F
:100D1000FFF772FD064605E082E0FFF76DFD801BE0
:100D200002287DD838688007F7D42078400765D539
:100D30006F484FF000083C300068C0000BD46C488E
:100D40003C30016841F08051016000684FF00108BB
:100D500000F080500090694F3868C0050FD43868A3
:100D600040F480703860FFF747FD064604E0FFF767
:100D700043FD801B022853D83868C005F7D55C4F67
:100D8000A0686C3701280FD00528386810D020F0F3
:100D900001003860386820F004003860A068B0B105
:100DA000FFF72AFD06460EE0386840F00100F4E740
:100DB00040F004003860F7E7FFF71EFD811B41F2A9
:100DC0008830814263D838688007F5D50DE0FFF799
:100DD00013FD064606E0FFF70FFD811B41F2883048
:100DE000814254D838688007F5D4B8F1000F05D097
:100DF0003F483C30016821F080510160A069B8B3E0
:100E00003B49091D0968C1F38101022946D0022826
:100E1000584606D0C9F86000FFF7EEFC044639E0FA
:100E200035E04F46C9F86000FFF7E6FC064604E0EF
:100E3000FFF7E2FC801B022829D828688001F7D43C
:100E4000D4E907010843A16A2D4A490802EB014190
:100E5000626A41EA8211084394F82C1040EA016169
:100E6000CAF8001001203866FFF7C6FC044605E00A
:100E70003CE0FFF7C1FC001B022808D8286880016D
:100E8000F7D533E0FFF7B8FC001B022802D9032096
:100E9000BDE8F88F28688001F4D427E00128F7D056
:100EA000DAF80000E26900F4800191421CD1226A64
:100EB00000F03F01914217D147F6C071626A0140CC
:100EC000B1EB821F10D1A26A4FF0FF3300F4403122
:100ED00003EB5202B1EB024F06D194F82C1000F054
:100EE0007060B0EB016F01D00120D1E70020CFE7A7
:100EF0000438024000004742800E47420070004024
:100F00000000FFFF7047704710B5040003D094F84D
:100F10003D0010B107E0012010BD002084F83C0026
:100F2000204600F01EF8022084F83D00211D2068B4
:100F300000F002FB012084F8460084F83E0084F8AB
:100F40003F0084F8400084F8410084F8420084F8AF
:100F5000430084F8440084F8450084F83D000020F4
:100F600010BD704790F83D10012901D00120704755
:100F7000022180F83D100168CA6842F00102CA608F
:100F800000681149884214D0B0F1804F11D00F4948
:100F900088420ED00E4988420BD00E49884208D0B4
:100FA0000D49884205D00D49884202D00C4988423B
:100FB00004D1816801F00701062903D0016841F0DE
:100FC0000101016000207047000001400004004062
:100FD00000080040000C00400004014000400140B7
:100FE00000180040704770B50446006801694FF072
:100FF0000005C943890715D4C168C943890711D4BD
:10100000E91E016101202077206880698007204661
:1010100002D0FFF7E7FF04E000F098F8204600F068
:1010200096F8257720680169C943490717D4C16834
:10103000C943490713D46FF00401016102202077EE
:101040002068806910F4407F204602D0FFF7CAFF75
:1010500004E000F07BF8204600F079F8257720685E
:101060000169C943090716D4C168C943090712D4E5
:101070006FF008010161042020772068C0698007B3
:10108000204602D0FFF7AEFF04E000F05FF82046F4
:1010900000F05DF8257720680169C943C90617D4B7
:1010A000C168C943C90613D46FF01001016108205B
:1010B00020772068C06910F4407F204602D0FFF7F7
:1010C00091FF04E000F042F8204600F040F8257758
:1010D00020680169C943C90708D1C168C943C90764
:1010E00004D1891E0161204600F032F820680169B0
:1010F000C943090609D4C168C943090605D46FF07C
:10110000800101612046FFF7FDFE20680169C943A7
:10111000490609D4C168C943490605D46FF04001A6
:101120000161204600F01EF820680169C943890664
:101130000BD4C168C943890607D46FF0200101614F
:101140002046BDE87040FFF7DEBE70BD70477047B7
:1011500000680349884201D1FFF754BB7047000083
:1011600000200040704770B5040004D094F83D00A2
:10117000002510B106E0012070BD84F83C502046E7
:1011800000F022F8242084F83D002068C16821F492
:101190000051C160204600F033FA2068016921F453
:1011A000904101612068416921F02A014161206874
:1011B000C16841F40051C1602564202084F83D00DD
:1011C00084F83E00002070BDF0B587B004461421BD
:1011D0006846FFF76DF9304B216800242F4A02253D
:1011E000032607272E48994219D12C4914310B6840
:1011F00043F010030B60096801F0100105911168BC
:1012000041F001011160116802AB01F0010105918B
:101210007102CDE9001583E8D00069461AE01F4B42
:10122000DFF880C01033614518D1196841F40031EE
:101230001960196801F400310591116841F001014C
:101240001160116801F0010105910C21CDE9001533
:1012500069461CE0FFF7E8F907B0F0BD124881428B
:10126000FAD1186840F480201860186800F48020D3
:101270000590106840F0020010601068694600F0A8
:10128000020005904FF44060CDE9000507480DF1DC
:10129000080C8CE8D000DDE7001001403038024037
:1012A00000000240004400400048004000040240AA
:1012B000FEE7000010B5044A0021044800F086FA59
:1012C0000349086010BD0000142F000865140008D1
:1012D0000000002070B586B014216846FFF7E8F8DA
:1012E0002F480024016841F010010160016801F0FD
:1012F00010010591016841F004010160016801F0ED
:1013000004010591016841F080010160016801F06C
:1013100080010591016841F001010160016801F05F
:1013200001010591016841F002010160016801F0CD
:1013300002010591016841F00801016000684FF663
:10134000FF7600F00800009605900325CDE90154D2
:1013500069461448FFF768F9B010CDE90005694601
:1013600002941148FFF760F94FF6F310CDE900053C
:10137000694602940D48FFF757F94FF2FF30CDE967
:101380000005694602940A48FFF74EF90096CDE938
:10139000015469460748FFF747F906B070BD0000E1
:1013A00030380240001002400008024000000240B5
:1013B00000040240000C02400C4810B50A490160CC
:1013C0004FF4E1314160002181600C22C160C0E92D
:1013D00004128161C161FFF7C6FE002803D0BDE899
:1013E0001040FFF71EB910BD00100140940000200E
:1013F0000C4810B50A4901604FF4E1314160002109
:1014000081600C22C160C0E904128161C161FFF7F3
:10141000AAFE002803D0BDE81040FFF702B910BDB6
:1014200000440040D80000200C4810B50A49016073
:101430004FF4E1314160002181600C22C160C0E9BC
:1014400004128161C161FFF78EFE002803D0BDE860
:101450001040FFF7E6B810BD004800401C01002016
:10146000FEE7FEE7012000F075F9FBE710B54FF04D
:10147000E020006901F098FB012803D0BDE810408E
:1014800001F0C2B810BD000030B593B030216846FD
:10149000FFF70EF814210CA8FFF70AF81D480025E5
:1014A000016841F080510160006800F080501190A7
:1014B0001948016841F4804101600068022400F489
:1014C0008040119001200090000401908001CDE93E
:1014D000064008AA0420A82182E813000B90684661
:1014E000FFF764FB08B172B6FEE70CA90F2081E894
:1014F00031004FF4A0500F904FF480501090052110
:101500000CA8FFF749FA002801D072B6FEE713B025
:1015100030BD0000403802400070004002480168C1
:1015200041F470010160704788ED00E00148FFF769
:101530005ABD000060010020F0B50268254D264E1E
:10154000264FDFF89CC0274B4FF0804EA84209D0B1
:10155000704507D0B04205D0B84203D0604501D0F5
:10156000984203D122F070044A682243A8421BD05B
:10157000704519D0B04217D0B84215D0604513D08D
:10158000984211D0184CA0420ED0184CA0420BD05B
:10159000174CA04208D0174CA04205D0164CA042D0
:1015A00002D0164CA04203D122F44074CA682243F0
:1015B0004C6922F08002224302608A68C2620A6893
:1015C0008262A84201D0984201D1096901630121D8
:1015D0004161F0BD000001400004004000080040EF
:1015E000000C004000040140004001400044014064
:1015F0000048014000180040001C0040002000404E
:1016000070B5044600680169E26821F44051114355
:101610000161A1682069E2690143606910430143E7
:101620002068C26849F20C639A430A43C26020688A
:101630004169A26921F44071114341613149206837
:10164000884202D03049884202D1FFF76FFA01E0A8
:10165000FFF75CFAE2690023192164253226B2F50E
:10166000004F626828D0A0FB0101930F9200FEF7A3
:101670005BFE0146B0FBF5F06FF01802504301EB42
:10168000800006EB0010B0FBF5F000F0F002B1FBBB
:10169000F5F002EB0012B1FBF5F06FF018035843C0
:1016A00001EB800006EB0010B0FBF5F000F00F003E
:1016B00021681044886070BDA0FB010192185B4155
:1016C000FEF732FE0146B0FBF5F00201B1FBF5F08A
:1016D0006FF01803584301EB800006EBC000B0FB2D
:1016E000F5F000F0F80002EB4002B1FBF5F05843D2
:1016F00001EB800006EBC000B0FBF5F000F0070046
:10170000D6E700000010014000140140FEE7090781
:10171000090E002804DB00F1E02080F80014704777
:1017200000F00F0000F1E02080F8141D7047FFF773
:1017300071F8FFF7A9FEFFF7CDFDFFF73DFEFFF7BC
:1017400057FEFFF771FE00F013F8FFF7B3FD00F04E
:1017500021F8FEE710B5EFF3058111B16FF0050434
:1017600003E0002408B100F0F1FD204610BD0000A8
:10177000EFF3058010B16FF0050070470448016871
:1017800011B14FF0FF307047012101600020704718
:101790006400002010B5EFF3058010B16FF0050074
:1017A00010BD08480168012902D04FF0FF3010BD7C
:1017B000054A002182F8141D0221016000F02EFE6E
:1017C000002010BD640000200BE000E02DE9FF4187
:1017D0000B464FF00005EFF30581039549BB40B37D
:1017E0008026182100244AB3176807B13C46976940
:1017F00007B139464F1E382F02D21779FF0703D0A1
:10180000002004B0BDE8F081576907B1BE08D2F8E6
:1018100008C0BCF1000F0DD0D5685C2D18D312693B
:101820003AB137B18DE806103246214601F08FF902
:1018300003900DE0D7685FB912694AB903AACDE9F0
:101840000012B2B2214601F055F9012800D00395EB
:101850000398D6E72DE9F041134E0F460446F5688C
:101860003068001D00F040FC601C07D137B13168C2
:10187000BDE8F0410D48091D00F086BC30682C44DD
:10188000AC424460316805D2B06BBDE8F041091D3F
:1018900000F062BC706B091D00F05EFCB06A84420F
:1018A00000D2B462BDE8F081140000209806002048
:1018B0002DE9F041054600F073FC2D4EB068401C48
:1018C000B06030682B4F10B1706930B32BE03560D9
:1018D000B068012827D1002404EB840007EB8000C6
:1018E00000F02CFC641C382CF6D3234800F026FCB6
:1018F0002148143000F022FC1F48283000F01EFC64
:101900001D483C3000F01AFC1B48503000F016FC1B
:10191000194870631430B06305E03068E96AC06A42
:10192000884200D83560706A401C70626864E86A5A
:101930003169884200D9306100EB800007EB8000FC
:10194000291D00F021FC00F04BFC706900280CD030
:101950003068E96AC06A884207D208494FF080506F
:101960000860BFF34F8FBFF36F8FBDE8F0810000B9
:1019700014000020E80100204806002004ED00E0EB
:1019800038B500F00DFC104C2068C8B90F4800F0C5
:10199000D5FB0E48143000F0D1FB0C48E060143049
:1019A00020610A4B0020F03B009003F1500210210F
:1019B0000A2000F03FFE206010B105A100F092FC6B
:1019C000BDE8384000F00CBC500000209C0700200F
:1019D000546D72510000000030B4026C0B46002AB6
:1019E0000BD0C1681144C1608468A14201D3016871
:1019F000C16030BC1846FEF70EBD30BC70472DE903
:101A0000F041856B174604460026026C82B1C7B1CF
:101A1000E068FEF700FDE168206C091AE1602268C9
:101A2000914202D2A168081AE060022F16D017E096
:101A30002068A8B9A06801F02FF906460020A06030
:101A40000EE06068FEF7E7FC216C606808446060A7
:101A5000A168884204D32068606001E005B16D1E72
:101A60006D1CA5633046BDE8F08110B5044690F8C2
:101A7000590058B101280CD002280FD0502080F313
:101A80001188BFF34F8FBFF36F8FFEE7206B00F01D
:101A9000BBFB2046BDE8104000F0B6BB10BD000007
:101AA00010484FF47051420706D0C01D0D4920F078
:101AB0000700411AC1F570510B4A00230144C2E9E5
:101AC00000030839183A21F0070111604B600B60E0
:101AD0000B1AC0E9001393604FF00040536050614F
:101AE000704700007C0E002080000020134E144D33
:101AF000A6F29C474FF08058DFF8489011E000F0C4
:101B00004FFBF068C468201D00F0EEFAA868401E84
:101B1000A8606868401E686000F062FB2046FFF71E
:101B2000A4FF68680028EAD138680128F9D9C9F803
:101B30000080BFF34F8FBFF36F8FF2E78406002062
:101B40001400002004ED00E070B51D46049C49B16E
:101B50002260C4E90F010121204600F09FFD84F8B6
:101B60004C5070BD2460F4E72DE9F05F0E46DDE9CE
:101B70000B941746834691009A460A9DA522206B36
:101B8000FEF78EFC6FF00301206B01EB8701084428
:101B900020F00707780707D0502080F31188BFF3A3
:101BA0004F8FBFF36F8FFEE74FF0000866B1002044
:101BB0002218315C82F83410315C11B1401C1028BD
:101BC000F6D384F8438001E084F83480382D00D3C4
:101BD0003725E562C4E91358201D00F0BAFA04F174
:101BE000180000F0B6FA2461C5F138006462A06103
:101BF000C4F8548084F8588052465946384600F05C
:101C00005DFA2060B9F1000F01D0C9F80040BDE8CD
:101C1000F09F000030B5114900E011460A68824289
:101C2000FBD34B685C18844203D140681844486079
:101C3000084643681C18944209D1084C183C246893
:101C4000A24209D052681A4442600A6812680260CF
:101C5000814200D0086030BD0460F9E780000020B8
:101C600070B5002441600B4D0061914206D8D11A35
:101C70008269914206D2011D286907E09A4203D287
:101C8000994201D3012403E0011DE86800F064FAE1
:101C9000204670BD5000002010B5044600F080FAC8
:101CA000A06B20B1002400F09BFA204610BD012457
:101CB000F9E7000030B587B03C4D6EE00198002890
:101CC00006DADDE90301029A90470198002864DBF7
:101CD000039C606910B1201D00F006FA05A800F011
:101CE000D7F8024601980A2857D2DFE800F0050528
:101CF000052D334A05052D3394F8280040F00100E6
:101D000084F828000298A169034601442046FFF7A1
:101D1000A7FF68B3216A2046884794F82800400747
:101D20003BD5002000900298A16900234218194673
:101D3000204601F0B7F8D8B9502080F31188BFF3DE
:101D40004F8FBFF36F8FFEE714F8280F20F00100CC
:101D5000207022E094F8280040F0010084F8280068
:101D60000298A06128B1811813462046FFF778FF3A
:101D700013E0502080F31188BFF34F8FBFF36F8FB4
:101D8000FEE794F82800810703D4204600F03CFACF
:101D900003E020F0010084F82800002201A928684F
:101DA00000F0D2FD002889D107B030BD50000020DE
:101DB0002DE9FC410F46054600F072FB01A800F03A
:101DC00067F80446019818B100F0DCFFBDE8FC811B
:101DD000254EAFB130690068D0B30027291B3A46C1
:101DE000306800F091FA00F0CDFF0028EED11F49D5
:101DF0004FF080500860BFF34F8FBFF36F8FE5E760
:101E0000A542EBD800F0BEFFF0682746C068C46862
:101E1000201D00F069F994F82800410719D5A06940
:101E20002B4641193A462046FFF71AFFA8B1002079
:101E30000346014600902A46204601F033F860B977
:101E4000502080F31188BFF34F8FBFF36F8FFEE7F1
:101E500007E020F0010084F82800216A2046884726
:101E6000B4E70127BAE700005000002004ED00E0CD
:101E70000648416B096829B1416BC968C96849685E
:101E8000816270474FF0FF31FAE700001400002034
:101E900070B5054600F096FE064E0446B0688442D2
:101EA00003D200F009F8012000E00020286020465D
:101EB000B46070BD50000020F8B5194E20E0C06835
:101EC000C4680568201D00F00FF9216A2046884784
:101ED00094F82800400713D5A0692844A84206D9E1
:101EE00024616060211DF06800F036F908E00020F0
:101EF0000346014600902A46204600F0D3FF38B141
:101F0000F06801680029DAD13169C6E90310F8BD2B
:101F1000502080F31188BFF34F8FBFF36F8FFEE720
:101F20005000002008484068401C4FF0500080F3EB
:101F3000118804D0BFF34F8FBFF36F8FFEE7BFF35D
:101F40004F8FBFF36F8FFEE788000020084CE068DA
:101F5000016839B1002139B10020FFF729FFFFF7EF
:101F6000A9FEF4E70121F6E7C0680068F5E7000084
:101F7000500000202DE9F041044600F011F994F9D9
:101F8000455004F1240609E0606A48B1304600F08B
:101F9000C1FE08B100F008FA6D1E6DB2002DF3DC31
:101FA0004FF0FF3684F8456000F01AF900F0F8F8B9
:101FB00094F9445004F1100709E0206948B138460B
:101FC00000F0A8FE08B100F0EFF96D1E6DB2002D13
:101FD000F3DC84F84460BDE8F04100F001B9000092
:101FE0002DE9F0410546002600F05AFA324F3868D4
:101FF00008B9FFF755FD786905424ED1C5B30835DC
:1020000068070ED005F00700C0F108000544680716
:1020100007D0502080F31188BFF34F8FBFF36F8F2D
:10202000FEE72DB37868854237D823491831084632
:10203000046801E0214604466068A84202D2206894
:102040000028F7D13868844227D00E6820680860DD
:1020500060680836411B10290FD96019420708D063
:10206000502080F31188BFF34F8FBFF36F8FFEE7CF
:1020700013E041606560FFF7CDFD61687868401A44
:102080007860BA68904200D2B86078690143002055
:10209000C4E90001F868401CF86000F073FE7007A6
:1020A00007D0502080F31188BFF34F8FBFF36F8F9D
:1020B000FEE73046BDE8F0816800002010B5031F40
:1020C0004FF080741C601B1F21F001011960191F63
:1020D000044B0B6014390A60091F6FF00202443888
:1020E0000A6010BD251F0008D0E9013201699A601D
:1020F000D0E901235A604A68824201D182684A606D
:10210000002202610868401E0860086870470000ED
:10211000034B036003F15C0008608020106070478F
:10212000C4070020044B036003F15C0008604FF417
:102130008070106070470000200A002000F1080144
:102140004FF0FF32C0E90112C1600161002101605E
:10215000704700210161704730B50C68621C02D0E5
:1021600000F1080202E0026904E01A4653681D68A3
:10217000A542FAD953684B6099608A605160086142
:102180000168491C016030BD42684A6093688B60F9
:1021900093685960916008610168491C016070474B
:1021A000502080F31188BFF34F8FBFF36F8F0A4920
:1021B0004868401C486001280CD10848006810F0AD
:1021C000FF0F07D0502080F31188BFF34F8FBFF36C
:1021D0006F8FFEE7704700008800002004ED00E0EC
:1021E0000849486828B1401E486001D180F3118831
:1021F0007047502080F31188BFF34F8FBFF36F8F6C
:10220000FEE700008800002070B500282AD0164D97
:10221000A0F1080460686969084207D1502080F382
:102220001188BFF34F8FBFF36F8FFEE722683AB17B
:10223000502080F31188BFF34F8FBFF36F8FFEE7FD
:102240008843606000F02CF9606869680844686041
:102250002046FFF7DFFC2869401C2861BDE870407C
:1022600000F090BD70BD0000680000204FF0E0203D
:1022700000210161816105494FF47A720968B1FB5F
:10228000F2F1491E416107210161704710000020F1
:1022900010B5FEF725F8114910280ED300F1E02003
:1022A00090F8F0030A78904207D2502080F311880A
:1022B000BFF34F8FBFF36F8FFEE70948006889684F
:1022C00000F4E060884207D9502080F31188BFF302
:1022D0004F8FBFF36F8FFEE710BD00008800002016
:1022E0000CED00E010B5074B002253F832401CB152
:1022F000521C082AF9D310BD43F8321003EBC20177
:10230000486010BDA801002070B515460E46044671
:10231000FFF746FF94F944100020491C01D184F8CE
:10232000440094F94510491C01D184F84500FFF799
:1023300057FFA06B28B92A46314604F1240000F06B
:1023400051F82046BDE87040FFF714BE10B50200FA
:1023500014D00F48006B38B1502080F31188BFF3C0
:102360004F8FBFF36F8FFEE700F09AF80021104601
:10237000FFF770FA00F006FD002807D105494FF07D
:1023800080500860BFF34F8FBFF36F8F10BD000008
:102390001400002004ED00E002490A6A0260C968E6
:1023A000416070471400002001490120C861704756
:1023B0001400002010B50C4650B1094909681831C5
:1023C000FFF7CAFE2046BDE810400121FFF742BAE0
:1023D000502080F31188BFF34F8FBFF36F8FFEE75C
:1023E0001400002070B514460D4668B10A4909680A
:1023F0001831FFF7C9FE0CB14FF0FF3521462846D2
:10240000BDE87040FFF726BA502080F31188BFF373
:102410004F8FBFF36F8FFEE71400002030B587B0F9
:102420000025039505AA04A903A80495FFF770FEEB
:10243000DDE903010095CDE90110002314A1164840
:10244000059A00F084FB154CE06218B100F0FAFC2C
:10245000012809D0401C19D1502080F31188BFF306
:102460004F8FBFF36F8FFEE7502080F31188BFF3CB
:102470004F8FBFF36F8F4FF0FF30A062012060617C
:10248000E56007B0BDE8304000F044B807B030BDAB
:1024900049444C4500000000ED1A000814000020DB
:1024A0000248016B491C01637047000014000020C2
:1024B000164B10B5186B10B10120D86110BD00206B
:1024C000D8611869124901E0B8B1401E00EB8002E2
:1024D00051F82220002AF7D000EB800201EB8201A4
:1024E00001F108044A6852684A60A24201D1526868
:1024F0004A60D1681960186110BD502080F31188BE
:10250000BFF34F8FBFF36F8FFEE700001400002072
:10251000E80100201CB537480168374A914207D1CD
:10252000502080F31188BFF34F8FBFF36F8FFEE70A
:1025300000683149491E884207D1502080F3118834
:10254000BFF34F8FBFF36F8FFEE72C4908780190E0
:10255000FF20087008788DF800009DF800009DF8B5
:10256000002000F0F000904207D0502080F3118846
:10257000BFF34F8FBFF36F8FFEE79DF80000204C35
:1025800000F0500020700720A06006E0401EA06010
:102590009DF8000040008DF800009DF80000000646
:1025A000A068F3D4032807D0502080F31188BFF32C
:1025B0004F8FBFF36F8FFEE74FF44070A06001981C
:1025C00008700C482030016841F470010160016816
:1025D00041F070410160FFF749FE00206060FDF7A7
:1025E00047FE0848016841F040410160FDF72CFEBC
:1025F00000201CBD00ED00E071C20F4100E400E0CE
:102600008800002034EF00E010B5502080F31188DE
:10261000BFF34F8FBFF36F8F00F0DAFA18B10449A0
:102620004FF080500860002080F3118810BD00003A
:1026300004ED00E038B5049D18B153B1CAB181B1C1
:1026400020E0502080F31188BFF34F8FBFF36F8FCE
:10265000FEE7502080F31188BFF34F8FBFF36F8FD9
:10266000FEE7502080F31188BFF34F8FBFF36F8FC9
:10267000FEE739B1502080F31188BFF34F8FBFF3CD
:102680006F8FFEE750241C46012384F846302B460A
:102690000094FFF759FA204638BD000070B50D468A
:1026A000040025D0FFF77CFDD4E90F20216802FB50
:1026B0000011A1600021A163216861600A46D4E98C
:1026C0000F01401E00FB0121E16021464FF0FF3069
:1026D00001F8440F487004F110008DB1FFF72EFD92
:1026E00004F12400FFF72AFDFFF77AFD012070BDF9
:1026F000502080F31188BFF34F8FBFF36F8FFEE739
:1027000021690029F0D000F005FB0028ECD0044935
:102710004FF080500860BFF34F8FBFF36F8FE3E738
:1027200004ED00E02DE9FF4F83B01F468B46040007
:102730004FF0000603D0BBF1000F08D011E050208D
:1027400080F31188BFF34F8FBFF36F8FFEE7206CCC
:1027500038B1502080F31188BFF34F8FBFF36F8FD4
:10276000FEE7022F0AD1E06B012807D0502080F34A
:102770001188BFF34F8FBFF36F8FFEE700F014FA9D
:10278000DFF800914FF0000A4FF0805848B90598E3
:1027900038B1502080F31188BFF34F8FBFF36F8F94
:1027A000FEE7FFF7FDFCA06BE16B884205D3022F2B
:1027B00003D00598C8B1DEB11EE03A46594620461E
:1027C000FFF71DF9616A19B104F1240000F0A2FAC3
:1027D00028B1C9F80080BFF34F8FBFF36F8FFFF7A9
:1027E000FFFC012007B0BDE8F08FFFF7F9FC21E006
:1027F0006846FFF7D1FD0126FFF7F2FCFFF750FE18
:10280000FFF7CEFC94F94400401C01D184F844A0A9
:1028100094F94500401C01D184F845A0FFF7E0FC85
:1028200005A9684600F02CF930B12046FFF7A2FB5D
:1028300000F0A8FA0020D5E7FFF7B2FCA06BE16B2F
:10284000884201D1012500E00025FFF7C9FC95B1C0
:1028500004F110000599FFF7ADFD2046FFF78AFB54
:1028600000F090FA00289CD1C9F80080BFF34F8F88
:10287000BFF36F8F95E72046FFF77CFB00F082FAED
:102880008FE7000004ED00E02DE9F0471F46904679
:102890008946040003D0B9F1000F08D011E05020A0
:1028A00080F31188BFF34F8FBFF36F8FFEE7206C6B
:1028B00038B1502080F31188BFF34F8FBFF36F8F73
:1028C000FEE7022F0AD1E06B012807D0502080F3E9
:1028D0001188BFF34F8FBFF36F8FFEE7FFF7D8FC70
:1028E0005020EFF3118680F31188BFF34F8FBFF3B1
:1028F0006F8FA06BE16B884206D3022F04D00020BB
:1029000086F31188BDE8F08794F94550A06B3A46EC
:1029100049462046FFF773F8681C04D06D1C84F804
:1029200045500120ECE7606A0028FAD004F1240049
:1029300000F0F0F90028F4D0B8F1000FF1D0012137
:10294000C8F80010EDE700002DE9F74783B08A468C
:1029500004004FF0000603D0BAF1000F08D011E0D8
:10296000502080F31188BFF34F8FBFF36F8FFEE7C6
:10297000206C38B1502080F31188BFF34F8FBFF324
:102980006F8FFEE700F010F9DFF8F09000274FF0AE
:10299000805848B9059838B1502080F31188BFF3AA
:1029A0004F8FBFF36F8FFEE7FFF7FAFBA56BC5B143
:1029B00051462046FFF710F86D1EA563206950B1FF
:1029C00004F1100000F0A6F928B1C9F80080BFF3A7
:1029D0004F8FBFF36F8FFFF703FC012006B0BDE8F8
:1029E000F087059808B11EB106E0FFF7F9FB27E074
:1029F0006846FFF7D1FC0126FFF7F2FBFFF750FD19
:102A0000FFF7CEFB94F94400401C01D184F84470D8
:102A100094F94500401C01D184F84570FFF7E0FBB4
:102A200005A9684600F02CF8002820460AD0FFF7D8
:102A3000A1FA00F0A7F92046FFF72EF90028B3D03D
:102A40000020CBE7FFF728F990B104F124000599A5
:102A5000FFF7B0FC2046FFF78DFA00F093F900284D
:102A6000A2D1C9F80080BFF34F8FBFF36F8F9BE7F0
:102A70002046FFF77FFA00F085F995E704ED00E0C6
:102A80002DE9F0410C46050011D0C4B1FFF788FBD9
:102A9000174EF1686B682268C81A571C17D02F6848
:102AA000366AB74219D08B4217D8012410E0502063
:102AB00080F31188BFF34F8FBFF36F8FFEE7502075
:102AC00080F31188BFF34F8FBFF36F8FFEE70024B1
:102AD000FFF786FB2046BDE8F081824205D9101A37
:102AE00020602846FFF758FCF1E700202060DCE773
:102AF000140000202DE9FF5F8346DDE90E8799462B
:102B000016468A469000FFF76BFA05001CD05C2041
:102B1000FFF766FA040014D00020256384F85900FA
:102B2000CDE90240CDE900874B4632465146584632
:102B3000FFF71AF82046FEF7BBFE012004B0BDE8FF
:102B4000F09F2846FFF760FB4FF0FF30F6E7F0B547
:102B500085B00546DDE90B040A9EA8B1E4B15C2707
:102B600000972063022084F859000020CDE902403C
:102B700004AF2846CDE90067FEF7F6FF2046FEF7D2
:102B800097FE049805B0F0BD502080F31188BFF384
:102B90004F8FBFF36F8FFEE7502080F31188BFF394
:102BA0004F8FBFF36F8FFEE70548416919B1006B86
:102BB00018B10020704701207047022070470000C4
:102BC000140000200148C068704700001400002075
:102BD0002DE9F0412E4F0026386B28B1B869401C12
:102BE000B8613046BDE8F081FD686D1CFD6013D111
:102BF000786B006838B1502080F31188BFF34F8F95
:102C0000BFF36F8FFEE7786BB96B7963B863386A8F
:102C1000401C3862FFF72CF9B86ADFF878808542EB
:102C200009D3786B0068A0B1786BC068C46860682D
:102C3000854211D2B8623868C06A00EB800158F84A
:102C40002100012800D90126F8690028C9D00126F1
:102C5000C7E74FF0FF30EDE7201DFFF745FAA06A08
:102C600018B104F11800FFF73FFAE06A39698842A9
:102C700000D9386100EB800108EB8100211DFFF7CE
:102C800083FAE06A3968C96A8842CAD30126C8E76C
:102C900014000020E801002070B504004FF000008F
:102CA0002BD01A4D29688C4207D0502080F3118810
:102CB000BFF34F8FBFF36F8FFEE7216DF1B1491E58
:102CC0002165E36CE26A9A4217D0002915D1201DD4
:102CD000FFF70AFAE06CE062C0F13800A061E06A38
:102CE0002969884200D92861094900EB800001EB7D
:102CF0008000211DFFF748FA012070BD502080F3AD
:102D00001188BFF34F8FBFF36F8FFEE714000020D1
:102D1000E801002070B5C068C46854B104F118001F
:102D20000646FFF7E1F9144D286B50B131461348C0
:102D300015E0502080F31188BFF34F8FBFF36F8FE2
:102D4000FEE7201DFFF7D0F9E06A2969884200D923
:102D500028610B4900EB800001EB8000211DFFF78B
:102D600013FAE06A2968C96A884202D90120E86139
:102D700070BD002070BD000014000020700600200F
:102D8000E80100202DE9F0472B4D00242746286B51
:102D900038B1FFF705FA286B401E2863286B40B155
:102DA00045E0502080F31188BFF34F8FBFF36F8F42
:102DB000FEE7A86821490126C8B3A1F591698846B4
:102DC000D8F80010E1B1D8F80C00C46804F118007C
:102DD000FFF78AF9201DFFF787F9E06A2969884221
:102DE00000D9286100EB800109EB8100211DFFF76C
:102DF000CBF9E06A2968C96A8842E1D3EE61DFE76E
:102E00000CB1FFF735F8AC693CB1FFF7E1FE00B15A
:102E1000EE61641EF9D10020A861E86938B1084963
:102E2000012738070860BFF34F8FBFF36F8FFFF79D
:102E3000D7F93846BDE8F08714000020700600205E
:102E400004ED00E010B586B0FEF79AFD114C206845
:102E5000B8B100200390049005AA04A903A8FFF7C5
:102E600061F9DDE9032102208DE8070000230AA1B2
:102E70000B48059AFFF76BFE606010B106B00120A9
:102E800010BD502080F31188BFF34F8FBFF36F8FB9
:102E9000FEE7000050000020546D7220537663005E
:102EA0004D1F00082DE9FF411F4603000A9E4FF009
:102EB000000015D0134D2C68002C0ED08DE80E00AC
:102EC000062917DAFFF770FE02284FF000030FD033
:102ED000002269462868FFF725FC04B0BDE8F081B0
:102EE000502080F31188BFF34F8FBFF36F8FFEE741
:102EF0003246EEE700233A4669462046FFF7C4FC17
:102F0000EBE70000500000204FF04070E1EE100AA7
:102F100070470000502F0008000000000000000073
:102F20000000000000000000000200001800000087
:102F30000000000000000000000000000000000091
:102F4000010203040607080900000000010203044F
:102F500064656661756C745461736B007C2F000846
:102F60000000002094000000C40100081030000898
:102F7000940000204C500000E00100080000000018
:102F80000100000010000000000000000024F40018
:102F90000000000000000000000000000000000031
:102FA0000000000000000000000000000000000021
:102FB0000000000000000000000000000000000011
:102FC0000000000000000000000000000000000001
:102FD00000000000000000000000000000000000F1
:102FE00000000000000000000000000000000000E1
:102FF00000000000000000000000000000000000D1
:103000000000000000000000AAAAAAAA0000000018
:040000050800018965
:00000001FF
